:1000000000300020C1000000471F0000632C0000EA
:1000100000000000000000000000000000000000E0
:10002000000000000000000000000000652C00003F
:100030000000000000000000672C0000692C000098
:100040006B2C00006B2C00006B2C00006B2C000054
:100050006B2C00006B2C00006B2C00006B2C000044
:100060006B2C00006B2C00006B2C00006B2C000034
:100070006B2C00006B2C00006B2C00006B2C000024
:100080006B2C00006B2C00006B2C00006B2C000014
:100090006B2C00006B2C00006B2C00006B2C000004
:1000A0006B2C00006B2C00006B2C00006B2C0000F4
:1000B0006B2C00006B2C00006B2C00006B2C0000E4
:1000C0000749084A084B9B1A05DD002408591051BE
:1000D00004349C42FADB054880470548004700008D
:1000E00050490100C0F0FF1FA4FAFF1F6D2C000053
:0400F000C504000043
:10040000FFFFFFFFFFFFFFFFFFFFFFFFFEFFFFFFFD
:10041000054B0648033310B51B1A062B03D9044BB2
:10042000002B00D0984710BDA4FAFF1FA4FAFF1FAD
:10043000000000000648074910B5091A8910CB0FC3
:100440005918491003D0044B002B00D0984710BD19
:10045000A4FAFF1FA4FAFF1F0000000010B5074C0C
:100460002378002B09D1FFF7D3FF054B002B02D0D7
:10047000044800E000BF0123237010BDA8FAFF1F4D
:1004800000000000E0450100094B10B5002B03D02F
:100490000849094800E000BF08480368002B02D162
:1004A000FFF7C8FF10BD064B002BF9D09847F7E7C0
:1004B00000000000ACFAFF1FE0450100A4FAFF1F96
:1004C00000000000144B002B00D1124B9D4640222F
:1004D00092029A1A924600218B460F461148124A00
:1004E000121A05F0EDFF0D4B002B00D098470C4B76
:1004F000002B00D098470020002104000D000B487D
:1005000001F06BFE05F0EAFD2000290001F090FFEC
:1005100001F060FE00000800003000200000000034
:1005200021240000A8FAFF1F1CFFFF1F195900001B
:1005300070B504000D001822002105F0C1FF29004C
:10054000200003F038F800232000E3612362636297
:1005500096230422DB000821283002F033FE20001D
:1005600070BD10B5040000F0C5FF23000022A033C9
:1005700020001A7010BD70B51E0000230400150085
:100580000376CA5CE2540133062BFAD1280001F04D
:1005900059F8A06020002900503006F003FC230029
:1005A0000122A0331A70300001F04CF8E06004988A
:1005B00001F048F82061200001F081F8002070BDB2
:1005C00030B5050089B006AC22000623092100F0F1
:1005D000ECFF62792378049222798C350392E278D9
:1005E00014210292A2782800019262780092034AB4
:1005F00006F052FA280009B030BDC046CC200100F8
:1006000030B50D002A4CA5440400684600F0CEFA2F
:100610002900684600F034FA0500431C3CD06B46C4
:100620009B7900251A066B46DB791B0413436A4647
:10063000527A13436A46127A12021343A3606B463E
:100640009B7B1A066B46DB7B1B0413436A46527C7A
:1006500013436A46127C1202134323616B469B7C50
:100660001A066B46DB7C1B0413436A46527D134318
:100670006A46127D12021343E3606B469B7A1A06A8
:100680006B46DB7A1B0413436A46527B13436A466C
:10069000127B12021343636110A802F0B2FE08A895
:1006A00000F096FC2800B3239B009D4430BDC0465B
:1006B00034FDFFFF10B5037E0400002B07D120009E
:1006C00000F0E3FF01235840C0B2404204E0034978
:1006D000FFF796FF0028F2DA10BDC046983A0000F6
:1006E00013B501AC2200042300F05FFF2378E27809
:1006F000E37022706378A278A3706270019816BDCF
:100700001FB50F210400FFF7EBFFFF22010011408E
:10071000030E0291010A000C503411401040019167
:100720000090044A1421200006F0B6F9200004B01D
:1007300010BDC046EA2001001FB505210400FFF7E7
:10074000CFFFFF2201001140030E0291010A000CAD
:1007500064341140104001910090044A142120009B
:1007600006F09AF9200004B010BDC046EA2001004E
:100770001FB501210400FFF7B3FFFF220100114064
:10078000030E0291010A000C7834114010400191CF
:100790000090044A1421200006F07EF9200004B0E5
:1007A00010BDC046EA200100F0B505000E0085B07E
:1007B000039210310422063005F0F8FD2B003100C1
:1007C00016331800143104220193012705F0EEFDC1
:1007D00033007F42F033039AB0181A78FF2A2DD0E5
:1007E00083422BD2591C002A01D10B00F5E759781E
:1007F0009C1C0291062A18D008D8012A10D0032A7E
:1008000019D12800042221000E3012E0352A05D02B
:10081000362A10D10422210001980AE09F780AE0CC
:10082000280004222100123003E0280004222100C5
:100830000A3005F0BBFD029BE318CCE7380005B099
:10084000F0BD10B500230C00EF2A0BDD0A78022A58
:1008500008D1010002323431201D05F07FFD4342F2
:100860004341DBB2180010BDF0B5AF250C00AD0060
:10087000631A9A4208DD435926785F1CC318643313
:10088000475101341E70F3E7F0BD30B5AF24A4002A
:10089000002907DD035901395D1CC3186433055174
:1008A0001A70F5E730BD0000AF23F0B5002504262F
:1008B000040087B09B00C55032001F4901A805F015
:1008C00075FD320001A92000FFF7CEFF280003F0DC
:1008D00071F9070005F058FE21003F183B0E343136
:1008E0000B7023003A0C35331A703A0A5A709F7015
:1008F00032002000FFF7B8FF2A0020001421FFF784
:10090000C4FF210020000622FFF7AEFF2A002000CE
:10091000CA21FFF7BAFF084B0E3599192A0002A821
:1009200005F044FD20002A0002A9FFF79DFFAF2338
:100930009B00E05807B0F0BDFA200100F8B50E00AA
:100940001100AF229200855847196C1C64378450FF
:100950003E70002B07DD0419023564348550237086
:100960001A00FFF781FFF8BDF0B5AF270425002678
:10097000040089B0BF00C6512A00264903A805F02B
:1009800015FD2A0003A92000FFF76EFF21002A00B1
:1009900020003431FFF768FF320020000C21FFF700
:1009A00074FF2300163319002A0020000193FFF77B
:1009B0005BFF320029002000FFF767FF21002000C5
:1009C0000622FFF751FF32002000CA21FFF75DFF2A
:1009D00010490D363200123104A805F0E7FC320050
:1009E00004A92000FFF740FFA21D2B0020003221A8
:1009F000FFF7A4FF2B002000019A3621FFF79EFF8E
:100A0000E359581CE051E418FF236434237009B003
:100A1000F0BDC046FA20010070B5040086B001A800
:100A2000250000F0D1FA962364359B002A0001A925
:100A3000E06900F071FC061E1DDB020029002000A9
:100A4000FFF7FFFE002816D0320029002000FFF734
:100A5000ABFE02280AD12000FFF786FF2100030029
:100A600020312A00E06900F0CDFC04E0052802D125
:100A700001233834237001A800F0AAFA06B070BD33
:100A8000454BF0B504001868B0239B0087B00F00F9
:100A9000E05000287BD006232200092100F085FDCC
:100AA0003E4B3E009F4200DD3D4E102001F0C6FB54
:100AB000050000F0FBFBE561280000F0FDFB394A72
:100AC0000021E06900F0D4FAB02300259B00E05833
:100AD00005AA04230F21059500F036FD4421E069A5
:100AE00000F0B2FC23002033180043222E49029369
:100AF00000F070FA230038331D700195230038335D
:100B000003931B78002B36D1012D06D0022D18D06F
:100B1000002DF9D125660135F0E72000FFF7C4FE6E
:100B2000250022000300643202994035E06900F09C
:100B300069FC280002F0D7FC280002F074FC0225B2
:100B4000DCE72000FFF768FF2000403002F0C2FC25
:100B50008642D3DA236E31005D1C256638000DF025
:100B600065FB854205DB0122039B1A7001235B4272
:100B700001930125C2E7E4690198002C09D0200007
:100B800000F087FA200001F06BFB019801E00120E2
:100B9000404207B0F0BDC046C8FAFF1F87130000EF
:100BA00088130000DC0500001921010010B50400C5
:100BB000203000F009FA2000403002F0A4FC2000B0
:100BC00010BD0000094B70B5C56B0833040003600D
:100BD000002D05D0280000F05CFA280001F040FB51
:100BE0002000103002F00DFC200070BD3821010003
:100BF00010B50400FFF7E6FF200001F031FB2000F4
:100C000010BD70B5002504004560012005F04AFBC9
:100C10002060A84200D00570200070BD10B504000F
:100C20000068002801D005F047FB200010BDF8B592
:100C3000036804000F001600002B18D04368D0187A
:100C4000013005F02FFB051E11D06268216805F008
:100C5000ADFB63683200E818390005F0A7FB0023FC
:100C60006268AE19B354206805F026FB2560F8BD14
:100C7000F8B506000F0032687C1CD55D002D23D02E
:100C80002B003F218B43C02B0AD1FC2329029B015F
:100C90001940135D30001943FFF7EAFFB81C14E058
:100CA000B368371D002B07D0084806F0EBF9074959
:100CB00002003800FFF7BBFF3368380019192A001B
:100CC000FFF7B5FF6719D6E72000F8BD052301003F
:100CD00070B50400074B0D0008330360103002F0BC
:100CE00012FC220000233832137020006563E36396
:100CF00070BDC046382101000F23F0B5CE7887B013
:100D000007000C001E4048D10C250B794A791B02C4
:100D1000134300938B79CA791B0213430193009B01
:100D20005A1E009235D304A8FFF76BFF290003A8D1
:100D30000394FFF79DFF051D04A8FFF76FFFEEE783
:100D400004A8FFF75EFF290003A80394FFF790FFB4
:100D5000020003000832A55CA21852782D02154348
:100D6000225C201841780A331202ED180A43012A46
:100D70000CD1E15CE318DA78090611435A781204C1
:100D800011439A780B00120213437B6004A8FFF70B
:100D900045FF019B5A1E0192D2D2300007B0F0BD30
:100DA00030B5144CA544040001A800F00DF98023CF
:100DB00006AA9B0001A9E06B00F0AEFA051E12DB4B
:100DC00021000222083106A805F0C8FA00280AD13D
:100DD00020002A0006A9FFF78FFF383404230028DB
:100DE00000D00223237001A800F0F2F887239B00B3
:100DF0009D4430BDE4FDFFFFF0B58BB004AF0400AF
:100E00000E000C22002138001D0005F059FB0123C3
:100E100004222C4903A8BB707B7105F0C7FA0C2291
:100E20003900300005F0C2FA05F0AEFB21000312D4
:100E3000237260720C2408310222300005F0B6FAE9
:100E400008A8FFF7DEFE07962B78002B2BD02E216B
:100E5000280005F0F5FE631C071E00930FD1280043
:100E600006F010F90700079B009A1855079B290008
:100E700098183A0005F09AFA009BFC1813E06A46AD
:100E8000431B01931279079B29001A55079B009A6F
:100E900098187A1B05F08AFA009A019B94466344DD
:100EA0007D1C1C00D0E70023079A601C135503A982
:100EB0000422301805F07AFA08A8FFF7AFFE601D8B
:100EC0000BB0F0BD2921010070B5C36BC6B00400A2
:100ED0000D00002B06D1102001F0B0F9060000F043
:100EE000E5F9E663E06B00F0E7F9E06B164A0021F4
:100EF00000F0BEF801A800F067F83522134901A8F8
:100F000000F068F8E66B05F03FFB4104490C300047
:100F100000F09AFA80222B0006A952002000FFF769
:100F20006BFF1034030006AA01A9E06A00F06AFA18
:100F3000200002F0D8FA200002F075FA01A800F0B3
:100F400047F846B070BDC046DC0500002D21010009
:100F500070B5050038352B780400002B05D10363EC
:100F6000416BFFF7B1FF01232B70260010363000D4
:100F700002F0B0FAFA239B0098420FDD300002F035
:100F80007FFA236B01332363012B01DD032304E08C
:100F9000616B2000FFF798FF01232B7070BD70B5C7
:100FA000050000230400383541632B702000FFF753
:100FB000CFFF2000FFF7F4FE28780128F6D0043890
:100FC00043425841C0B270BD0023037003617047B3
:100FD0007047000030B5144B0400186887B0150046
:100FE000002803D1114802F0AFFD18E005AA00F077
:100FF000E5FC002813D0059AFF2110000840130ECD
:101000000290100A120C08400A4001900092EF3939
:10101000074A200005F040FD2561002001E0012085
:10102000404207B030BDC046C8FAFF1F482101004A
:1010300089210100704700697047000001235B426D
:1010400010B5036002330371064B04008360064B46
:101050001B68C360002B02D1044802F075FD20001C
:1010600010BDC046DC050000C8FAFF1F9521010035
:1010700001718260704710B501680400C06800F01B
:1010800057FB01235B42236002335840C0B2404209
:1010900010BD10B50400FFF7EEFF200010BD10B525
:1010A0000400FFF7CBFF20001030FFF78DFF002278
:1010B000631D2000DA7710BD70B50E0001680400D2
:1010C0001500002902DA0120404219E0431DDB7FB0
:1010D000002BF8D02379C068002B01D1A26801E071
:1010E00001225242002300F0ACFB0028EBDB03009E
:1010F000A84200DD2B0032002168E06800F014FCFB
:1011000070BD10B50400FFF799FF200010BD00006E
:10111000036837B504000D00002B19DB012221689C
:101120002561E06800F02AFB236801AA19020D4B33
:10113000E068C9182B0A137089B20223557000F0B9
:1011400003FAE0680122216800F0DCFA002007E0E1
:10115000C06800F05DFA20600028DFDA012040421C
:101160003EBDC04604040000036810B5002B08DB38
:10117000012906D1C0680222190000F0C3FA00203C
:1011800001E00120404210BDF0B5036893B00400B7
:101190000E00002B71DB0AA802F0B5F90AA802F0D4
:1011A000A2F90AA802F03FF90AA802F093F9A3688D
:1011B000984205DD2379002B02D10124644258E0D6
:1011C000236806AD1902344B2A00C91889B20123DD
:1011D000E06800F0EAF92B78172BE5D123682A00A4
:1011E00019022E4BE068C91889B2042300F0DDF91A
:1011F0002B78EA78EB702A706B78AA78AB706A70FB
:10120000069AFF2110000840130E0290100A120CDB
:1012100008400A4001900092EF39214A280005F069
:101220003BFC236805AF19028223DB00C9183A0092
:1012300089B20223E06800F0B8F97A783B783A7016
:101240007B7029003A88300001270125236810307F
:101250003360731DDF776D42FFF7BCFE25602169A7
:101260002000FFF755FF00280ADA0E4802F06CFC58
:101270002C000AA802F0C5F80BE00124644208E043
:1012800020003900FFF770FF0024A042F1DA064881
:10129000ECE7200013B0F0BD030400000C040000D4
:1012A00089210100CE210100F721010010B50400C1
:1012B000FFF7C4FE200010BD036810B50400002B2A
:1012C00003DAC06800F0A4F9206002222168E06817
:1012D00000F054FA01235840C0B2404210BD000053
:1012E00030B514000D001378D2788BB00292A2783A
:1012F00011210192627805A80092064A05F0CCFB04
:101300002279637912021A4305A92800FFF762FEC9
:101310000BB030BD89210100F0B5040085B0019308
:1013200023790F001600C0682168002B01D1A26844
:1013300001E001225242082300F0BAFA051E02DA47
:101340000120404219E0082302AA2168E06800F069
:101350002FFA02AA39002000FFF7C2FF02ABDB8898
:10136000083D5BBA9BB29D42EAD3019A9342E7DC07
:1013700032002168E06800F01BFA05B0F0BD13B53B
:10138000130A01AC237062700223220000F0DCF823
:1013900013BD0000F0B5050085B008000F00FFF791
:1013A00049FE00260400EB68154A00932B681B02D7
:1013B0009B189BB20193200004F062F803AB985590
:1013C0002E21200005F03CFC002803D00136441CEF
:1013D000042EF0D103AA01990423009800F0B4F878
:1013E0003800EE682C68FFF726FE82232402DB001B
:1013F000E11882B289B23000FFF7C1FF05B0F0BD3D
:101400000C040000F8B504001D0023790F0016003D
:10141000C0682168002B01D1A26801E0012252427C
:101420006B1E00F00EFA00280ADB39002000FFF7DF
:10143000B1FF2B0032002168E06800F075FA01E08E
:1014400001204042F8BD0000036870B504000D00A3
:10145000002B09DB2168AAB2002D0ED1104B1A68AF
:1014600001321A6092B208E0C06800F0D1F8206042
:101470000028EFDA0120404211E00A4B0902C918A6
:1014800089B2E068FFF77BFF02222168E06800F084
:1014900075F9E0680122216800F034F9002070BD80
:1014A000C4FAFF1F040400000022835E70B504002C
:1014B0000D00013304D124220549064802F032FB15
:1014C0006368002D01D0E26800E02269136070BDFE
:1014D000222201006222010070B504000D001822D2
:1014E000002104F0EDFF2900200002F064F8200044
:1014F00070BD0000F7B50400060025000F0020367F
:101500001100383530000193FFF7E6FF01992800FC
:10151000FFF7E2FF00223800E761082101F08EFDAD
:10152000E069074901F0A8FD30000121FFF7BCFF89
:1015300028000121FFF7B8FF024B20001C60FEBD10
:1015400080841E00C8FAFF1FF0B50600002585B094
:10155000019102920393019B5C19039BA4B29D42EB
:1015600021DA3700203700213800FFF79DFFF069AE
:10157000F02103681B689847F069211203681B6813
:101580009847FF21F069214003681B689847029B38
:10159000F069595D036801351B68984701213800DF
:1015A000FFF782FFD7E705B0F0BDF0B506000025D4
:1015B00085B0019102920393019B5C19039BA4B235
:1015C0009D4222DA3700203700213800FFF76CFFF8
:1015D000F0690F2103681B689847F06921120368BE
:1015E0001B689847FF21F069214003681B689847F2
:1015F000F069002103681B689847029B0121585538
:101600003800FFF751FF0135D6E705B0F0BD000007
:1016100073B5060000240A4B210201ADC91889B236
:1016200001232A003000FFF7C0FF2B78002B05D0E4
:101630000134042CEFD10120404200E0200076BDAF
:101640000304000070B5040004260025200003F008
:1016500017FF2E210543200005F0F2FA002804D0E0
:10166000013E2D02441C002EF0D1280070BD73B540
:10167000130A01AC150C160EE270A37022000423AD
:1016800026706570FFF760FF73BD10B504008268B7
:101690000F21FFF7ECFF226920000121FFF7E7FF90
:1016A0002000E2680521FFF7E2FF012010BD1300D2
:1016B00007B501AA13700123FFF746FF07BD70B5F8
:1016C00005000400383528000121FFF7EDFE280051
:1016D0000021FFF7E9FE022002F0A4FA2800012110
:1016E000FFF7E2FE962002F0B9FA200080220021E6
:1016F000FFF7DDFF0623220009212000FFF724FF6A
:1017000070BD0000094B73B50902CC18A4B22100CA
:101710000500FFF7CCFF01AE0123320021002800B5
:10172000FFF743FF3378002BF5D173BD01040000B0
:10173000F7B5002605000F00B14219DB0C020D4B76
:10174000A4B201AEE1183200012389B2FFF72DFFE8
:1017500033780126002B0BD0102239002800FFF728
:10176000D1FF054BFF22E11889B22800FFF79FFF48
:101770003000FEBD0304000002040000002310B589
:10178000994207DB80230902DB00C91889B2FFF701
:101790008EFF0123180010BD13B501AC22000223F7
:1017A000FFF703FF2378627863702270208816BDEC
:1017B000F0B5040087B00E0017001D0000293CDBC7
:1017C0000B0085220C33DB029BB2D20001930B028B
:1017D0009B189BB219000493FFF7DEFF8022019B48
:1017E0004105490D591889B212019A184B190590F3
:1017F00093420FDD531A02936B461B893A00200077
:101800000393FFF7D2FE039B029AEB1A9BB2BA181E
:10181000019901E03A00ABB22000FFF7C6FE059B3C
:1018200004995A1992B22000FFF7A9FD2000402226
:101830003100FFF767FF280001E00120404207B0B8
:10184000F0BDF0B58BB007000C0016000193002925
:1018500028DB02A801F057FE02A801F044FE02A80E
:1018600001F0E1FD84232402DB00E418A4B221008E
:101870003800FFF791FF210005003800FFF78CFFCB
:101880008542F4D1019B9D4208DC731CEFD002A875
:1018900001F020FE8642EADA01256D4202A801F03D
:1018A000B0FD01E001256D4228000BB0F0BD000045
:1018B000F0B58BB006000C1E009201932CDB02A841
:1018C00001F021FE02A801F00EFE02A801F0ABFD1E
:1018D000144B2402E418A4B2002521003000FFF7C5
:1018E0005BFF071E04D021003000FFF755FF050005
:1018F000BD42F2D1019B9D420ADC009B0133EBD03B
:1019000002A801F0E7FD009B8342E5DA01256D4264
:1019100002A801F076FD01E001256D4228000BB020
:10192000F0BDC04626040000F0B5040087B00E00EC
:1019300017001D0000293BDB0B000833DB021E4AA9
:101940009BB201930B029B189BB219000493FFF703
:1019500023FF8022019B4105490D591889B21201CC
:101960009A184B19059093420FDD531A02936B4658
:101970001B893A0020000393FFF7E6FD039B029AC0
:10198000EB1A9BB2BA18019901E03A00ABB2200001
:10199000FFF7DAFD059B04995A1992B22000FFF770
:1019A000EEFC200020223100FFF7ACFE280001E011
:1019B0000120404207B0F0BD2404000070B50800CB
:1019C0009CB00D001600FFF73DFEFF220100114004
:1019D0000291010A11400191010C0A40030E00928C
:1019E000112104000F4A07A805F056F8290007A89E
:1019F00005F094F9002802D1346001240FE00021A1
:101A00000CA8FFF765F929000CA8FFF7C8FA041E17
:101A100002D00D9B059333600CA8FFF7D3F820008C
:101A20001CB070BDEA2001007047000010B5040032
:101A3000064B0360064B30300360064B436002F0F8
:101A400043F8200001F0A2FC200010BDE8290100AD
:101A5000082A0100642A010008B4024B9C46303871
:101A600008BC60472D1A000008B4024B9C4634386D
:101A700008BC60472D1A000010B504002830FFF79D
:101A8000D5FFE069002801D000F0EAFB200010BD7E
:101A900010B5040000F0E4FB200010BDF0B585B0E7
:101AA0000622364902A804F081FC354C354927004E
:101AB0003037380002F01AF8FE20800502F0C2F834
:101AC000314B324D1B68324A0093324B12681B680F
:101AD00002A92800FEF74FFD2F4E3060002808D1E4
:101AE0002800FEF76DFD2D490200380001F0FEFFD1
:101AF00003E02B49380001F0F9FF30342949200078
:101B000001F0F4FF8020C00502F09CF82649200077
:101B100001F0ECFF8020C00502F094F8234920007A
:101B200001F0E4FFFE20800502F08CF82800FEF7AB
:101B3000C1FD306000281AD11D49200001F0D6FFF8
:101B4000FE20800502F07EF82800FEF7D9FD060091
:101B50002800FEF7F1FD07002800FEF709FE3B0014
:101B6000009032001349200001F0C0FF03E0124949
:101B7000200001F0BBFF05B0F0BDC0468A22010085
:101B800070FBFF1F902201007CF1FF1FCCFAFF1FAA
:101B90004CF1FF1F98F1FF1FC0FBFF1FB222010095
:101BA000CA220100FB22010005230100F7220100E7
:101BB00007230100202301003823010030B591B034
:101BC000FFF76CFF01A8FFF79CFA502101A8FFF76F
:101BD0009FFA012101A8FFF7C7FA2A4C2A492000E1
:101BE000303001F083FF06A8FFF759FA2500274C93
:101BF0002368002B14D006A901A8FFF7C5FA2060BE
:101C0000002809D10AA8FFF715FA02002800204988
:101C1000303001F06BFFEAE71E4802F013F8E6E708
:101C20003F221D4906A8FFF747FA11221B4906A8C3
:101C3000FFF742FA1F221A4906A8FFF73DFA1A22B7
:101C4000184906A8FFF738FA0D22174906A8FFF72A
:101C500033FA2C22154906A8FFF72EFA144B154C1F
:101C60001A681549013220001A6004F077FF20221B
:101C7000210006A8FFF720FAFE20800501F0E2FF10
:101C8000ECE7C04670FBFF1F6523010094F1FF1FC6
:101C900089230100000020410AF1FF1F80F1FF1F8E
:101CA00050F1FF1FC4F0FF1F6FF1FF1FDEF0FF1F99
:101CB000BCFBFF1FC4FBFF1FA023010010B50400E5
:101CC000FFF7B4FE200000F0CBFA200010BD08B4EE
:101CD000024B9C46303808BC6047C046BD1C000023
:101CE00008B4024B9C46343808BC6047BD1C000059
:101CF000012337B51C4D5B4200931C4A1C4B1D4908
:101D0000280001F003FA1C4C1C492200280000F0B6
:101D10005FFAC0222900102392011948FEF721FC26
:101D2000E123184D5B0204220821280001F04AFA41
:101D300022001549280000F04BFA144D182200210A
:101D4000280004F0BDFB80212800490101F033FC8C
:101D50000F4D14212800FEF7EBFB280022000D494F
:101D600000F036FA37BDC046FCFBFF1F0C30000008
:101D70000430000008300000C0F0FF1F291A0000E6
:101D8000CCFAFF1F70FBFF1F2D1A0000E4FBFF1FA2
:101D900014FCFF1F791A000010B50400431C04D185
:101DA00015220649064801F0BDFE2000012100F081
:101DB00045FB01206406E40EA04010BD9C260100F6
:101DC0006722010070B505000C0029804B1C0FD064
:101DD0000800FFF7E1FF074B240BE418A401231DC3
:101DE000EB6004332B611434083368606B61AC60C2
:101DF00070BDC046C03FE00310B50023C05E00F0D8
:101E00004BFB10BD0022835E70B504000D00013352
:101E100004D1332209490A4801F084FE002D02D082
:101E2000012D06D070BDA268616813688B431360F2
:101E3000F8E7A268616813680B43F8E79C26010085
:101E4000622201000022835E70B504000D000133A0
:101E500004D124220549064801F064FE6368002D80
:101E600002D0E268136070BD2269FBE7F126010031
:101E700062220100F0B587B001F018FD16496846EE
:101E800001F099FB96250126042431006846FFF7EE
:101E9000D9FF280001F0E2FE00216846FFF7D2FFDB
:101EA000013C280001F0DAFE002CEED1C8270434F2
:101EB0007F0031006846FFF7C5FF380001F0CEFE15
:101EC00000216846FFF7BEFF013C380001F0C6FE66
:101ED000002CEED1D8E7C0464810000070B50D00C8
:101EE0000400A0B001F0E2FC2B0022008021684633
:101EF00008F0DAFA051E03DC01F006FD20B070BD23
:101F0000094B0A4E1B68002B04D104220821300023
:101F100000F02CFC00246B463000195D013400F009
:101F20006EFDA542F7D1E7E7A8FDFF1F10FFFF1FD9
:101F30000FB407B504A901C90191FFF7CFFF03B0A2
:101F400008BC04B018477FB51021684601F019FBA2
:101F500007B000BD084B10B51B68002B0AD1074C19
:101F600008212000042200F001FC962120008901B4
:101F700000F016FB10BDC046A8FDFF1F10FFFF1F9D
:101F800010B5022801DC002010BD002103380B4AE7
:101F9000830098589950884206D103F07DFA0923AE
:101FA000036001204042EFE703685B699847041E25
:101FB000E9DA03F071FA64420460F2E788FCFF1F7B
:101FC00070B50D00140002280EDC134B1B68002BAB
:101FD00001D1FFF7BFFF2E19B54211D029780F4864
:101FE00000F00DFD0135F7E703380D4B8000C058B8
:101FF000002807D103F050FA01240923644203604A
:10200000200070BD0368DB689847041EF8DA03F00F
:1020100043FA63420360F3E7A8FDFF1F10FFFF1FB1
:1020200088FCFF1F10B50C0002280CDC114B1B684C
:10203000002B01D1FFF78EFF0F4800F0C9FC207084
:102040000124200010BD03380C4B8000C05800282C
:1020500006D103F021FA0124092364420360F0E76A
:1020600003689B689847041EEBDA03F015FA634295
:102070000360E6E7A8FDFF1F10FFFF1F88FCFF1F9E
:1020800010B50124022809DD03380B4B8000C45829
:10209000002C05D103F000FA09230360200010BDD5
:1020A00023682000DB699847041EF7DA03F0F4F98F
:1020B000644204600024F1E788FCFF1F10B5022889
:1020C00007DC03F0E9F91D230360012464422000CA
:1020D00010BD0338094B8000C058002803D103F01D
:1020E000DBF90923F0E703681B699847041EEEDA61
:1020F00003F0D2F964420460E7E7C04688FCFF1FA2
:1021000070B50C00022804DC80239B014B6000208A
:102110000BE003380E4B8000C558002D06D103F0AC
:10212000BBF9092303600120404270BD2B682800E1
:10213000DB6998478023002807D11B0263602B6866
:1021400028009B6A98472061E1E79B01F6E7C046BB
:1021500088FCFF1F10B5012000F03CF80C4910B5B9
:102160000B681818EFF30882904205D30C22012067
:10217000084B40421A6010BD074A1468002C04D076
:10218000064A126812199042F0D208601800F2E76D
:102190009CF1FF1F18FFFF1F90FDFF1F94FDFF1F05
:1021A00070B50A4C05002368986803F089FA236823
:1021B000D86803F085FA01F0DDFC002801D001F0B9
:1021C0001FFD002D01D0FFF755FEFEE7C0F1FF1FF8
:1021D0000120704710B5FFF7E3FF0120704710B5ED
:1021E000002104F08BFA10BD30B585B001900920B4
:1021F0003A230D0002AC042201A96844237004F0C4
:10220000D5F82000290003F0E1FB041E08D0019856
:102210000368DB699847002802D02000FFF7DFFF42
:10222000200005B030BD7047704710B5FFF7FBFFC9
:1022300010BD10B5FFF7F8FF10BD000010B504F099
:1022400031F8041E02D1024801F07EFC200010BDCE
:10225000B527010010B5002801D004F02DF810BDFD
:1022600010B5FFF7F7FF10BD030004CB10B5040055
:10227000002A00D1036022689A4204D05B220349FD
:10228000034801F04FFC206810BDC04659270100EB
:10229000A127010070B50A4C05002000FFF7E4FFFC
:1022A000002380211800074A49009E58AE4200D101
:1022B000985004338B42F8D12000FFF7D5FF70BD52
:1022C00088FDFF1F88FCFF1FF0B587B001914349CF
:1022D000050004F023FD041E04D1FFF73BFE20009F
:1022E00007B0F0BD3E49280004F018FD002803D1D6
:1022F000FFF730FE0124F2E73A49280004F00EFD12
:10230000002803D1FFF726FE0224E8E7364F002419
:102310003800FFF7A9FF354BA600F3580093002BB8
:1023200043D00134402CF6D103F0B6F818230360F3
:102330003800FFF799FF0EE0290004A801F05EFACB
:1023400004A801F0A9FA051E08D103F0A5F802239C
:102350000360264BF55001246442C0E704A801F055
:1023600085FA070004A8002F03D001F089FA039032
:102370002EE001F06FFA051EE7D0036804A89B6801
:10238000009301F05AFA1A4B0199020019400B0010
:10239000280003A9009DA847051E19D003F07CF86A
:1023A000124B6D420560F750D5E701230F4A5B429F
:1023B0003800B350FFF758FF009B03932B783A2B5C
:1023C000BAD1691C042204A803F0F0FF049B039314
:1023D000064B0399A200D150033480E7DA270100AD
:1023E000E1270100D227010088FDFF1F88FCFF1FA5
:1023F000FFFFFEFF7047704770470000064A07491D
:10240000936830B51800CC1AC0301D68E55004330D
:102410008342FAD1916030BD00ED00E000F0FF1F73
:1024200010B5FFF7EBFFFFF7E6FFFFF7E5FF10BD85
:1024300010B5FFF7DFFFFFF7C1FB10BDF8B50500D2
:102440000C00431C04D114220D490E4801F06AFB14
:10245000280B070001230937BB400B490B4A240214
:102460008E5833438B500A4B0A4AC0187C23000312
:102470001D404019036813401C430460F8BDC0466A
:10248000E9270100672201000070044038100000B5
:1024900049000400FFF8FFFF70B504000D00431C65
:1024A00004D121220549064801F03CFB054BE41804
:1024B0000323216899432943216070BDE927010066
:1024C00067220100009004403F2100200E4A10B511
:1024D00013788B4383420FD10C490D4B58580D494B
:1024E000000F09680130484351790B4A490604D46A
:1024F00099580A4C2140995010BD80219C5849029E
:10250000214399504008F7E700400640441000007E
:1025100000700440A0F1FF1F04100000FFFFFEFF49
:1025200070B50A4D8C000600605900280DD073B2BA
:10253000002B03DA064B01211B689847B30604D52C
:10254000034B00211B682859984770BD9CFDFF1F55
:1025500098FDFF1F10B5034B01211879C0B2FFF79A
:10256000DFFF10BD00B0064010B5034B0221187903
:10257000C0B2FFF7D5FF10BD00C0064010B5074C34
:1025800000212079C0B2FFF7CBFF082322791A423D
:1025900002D022791343237110BDC04600A006402B
:1025A000F7B50D000C2103680600DC780C4001949F
:1025B000DA788A43DA70414A934200D073E0FFF739
:1025C00083FF002814D0FFF77FFF29010BF0A4FD43
:1025D0001F253268030A11782B40A9430B4313705F
:1025E000C0B253785070D378019C1C43D470F7BDAF
:1025F000334B344AD758344B3F0F1A683F230137C7
:102600005743324A9C46117899431300802953D08E
:1026100064461178A143D8D1517949063AD49279C8
:10262000D206D2D419785A78890694460122490FE5
:102630008A4030206146014203D0FF215201490106
:102640000A401F21DB788B43602B1AD007D8202B40
:102650000ED0402B13D0002B1AD1A02106E0A02BC6
:1026600012D0C02B12D0802B12D1B721890001E0EB
:10267000A021C9007A4310000BF04EFDA5E7F02120
:10268000F7E7A0210901F5E7B721F2E71049F1E7E3
:102690001049EFE71F231079517918400130194094
:1026A00078431831E8E7064B064AD158064B4903F0
:1026B000490F01311868DFE7380086E700A00640BF
:1026C0004410000000700440A0F1FF1F00400640CD
:1026D00095080000710B0000F7B5013B0700019160
:1026E00015000093012B04D9A6221C491C4801F0B7
:1026F00019FA022D04D9A72218491A4801F012FA32
:10270000019B082B04D0A8221449174801F00AFAAB
:102710000C203A68D178D37801408343D370012DDF
:1027200015D0002D13D0022D14D020206400264394
:10273000F6B29670137883431370009B10785B0198
:102740000343DBB21370D3781943D170F7BD2E0069
:102750002C00EAE700260124E7E7C0463C280100F8
:10276000A0280100C52801000F290100F8B50E00BE
:1027700004004D493000170000F05CFF4B49050094
:10278000380000F057FF0100280000F035FF050079
:10279000431C04D141224649464801F0C3F9464B47
:1027A00025609D4200D16CE0444B9D4200D170E019
:1027B000434B9D4210D1FFF787FE424B424A00280F
:1027C0005BD080219858C9040143995080223F4929
:1027D000D200585802435A500C212368DA788A43B1
:1027E000DA700822D9780A43DA7040221979114246
:1027F000FCD00C21DA788A43DA702F4B9D424ED000
:102800002E4B9D424DD02E4B9D4201D10023636043
:10281000962120008901FFF7C3FE01230022082131
:102820002000FFF759FF2049300000F0C9FE1F4982
:10283000380000F0C5FE731C08D008232268300061
:10284000D1780B43D3700221FFF726FE7B1C08D002
:10285000042322683800D1780B43D3700221FFF79C
:102860001BFE174B9D4207D10122194B21001A6014
:102870001848073203F09AFDF8BD802198580905E1
:10288000A2E780230F49114A1B01885803438B504C
:10289000A2E780230B490D4A5B018858F6E7012324
:1028A000B5E70223B3E7C04630260100C425010086
:1028B0003C2801001E29010000B0064000C006406F
:1028C00000A0064000700440041000003410000016
:1028D000A8FDFF1F10FFFF1F034B1960436803494A
:1028E0009B005A507047C04698FDFF1F9CFDFF1F7C
:1028F0000368284810B5834218D02748834218D06F
:102900002648834218D10C20254C002A1FD00029CC
:1029100015D0012918D0234B9A68030010339B006F
:102920009C5001238340204A136010BD1F4C0D2092
:10293000EBE71F4C0E20E8E700242000E5E720220B
:10294000D9780A43DA70E6E7DA788021F9E70029D6
:1029500004D001290BD0002904D00CE02021DA7822
:102960008A43DA70DB785BB2DB43DB0F07E07F2161
:10297000DA780A40DA70DA78012352099343002B9F
:10298000D3D0012383400B4AD367BFF34F8FBFF3EC
:102990006F8FCAE700B0064000C0064000A00640A6
:1029A0007D25000000ED00E000E100E0552500007D
:1029B0006925000004E100E008220368197911424A
:1029C00002D019790A431A711879202318407047E8
:1029D00010B504002000FFF7EFFF0028FAD02368AD
:1029E000D879C0B210BD082203681979114202D00B
:1029F00019790A431A7118797F239843704770B583
:102A000005000C002800FFF7EEFF0028FAD02B6825
:102A1000E4B2DC7170BD0000F0B587B00191040034
:102A20001F0033490CAB019800255D5F029200F056
:102A300001FE30490600029800F0FCFD2E4903908B
:102A4000380000F0F7FD2D490490280000F0F2FD59
:102A500003990590300000F0CFFD05990600049819
:102A600000F0CAFD0100300000F0C6FD2060431CEC
:102A700004D123222249234801F054F82368224A32
:102A800093421AD0214A934225D0402219780198C6
:102A90000A431A70164900F093FD1649029800F097
:102AA0008FFD1549380000F08BFD6B1C03D01349D6
:102AB000280000F085FD07B0F0BD8021144A1548BC
:102AC000090114582143115080211348C903145897
:102AD00021431150D9E780210D4A0E48890114582D
:102AE0002143115080210C4809041458F0E7C046D6
:102AF00080240100E42301001C2501007025010051
:102B000049290100AA290100006007400070074020
:102B100000700440381000003410000070B505004B
:102B200014001E00082904D03B220F490F4800F072
:102B3000F9FF032C04D93C220B490D4800F0F2FFA9
:102B400029681C25734273410878A207A843D20F55
:102B5000183DA40008702C40D20008781B011443D3
:102B60001C4304430C7070BD492901001429010065
:102B70002E2901001F4A204BF0B50E00D1581F4BE3
:102B80004903490F87B00700013118680BF0C4FAF8
:102B900001220023524204900293019300920225E5
:102BA00000245A1CDBB203920593039904986943ED
:102BB0000BF0B2FAB04207D8009B301A984203D209
:102BC000059B01940293009001346D00E4B2EDB2D4
:102BD000092CEAD1039B082BE1D17022029B0198BA
:102BE0001B011340613A3968104003438B7007B0F2
:102BF000F0BDC0460070044044100000A0F1FF1F6B
:102C000020220368D8781042FCD0C9B25971DA7812
:102C100052B2002AFBDA5879C0B27047F0B585B0DD
:102C200002930AAB80CB00901B78019116000393AE
:102C30003D00974200DA15000024AC4202DB280078
:102C400005B0F0BD0399B44201DA019B195D00980B
:102C5000FFF7D6FFBC4201DA029B18550134ECE7BE
:102C6000FEE7FEE7FEE7FEE7FEE7FEE7882200203C
:102C70001F4B520110B5985080221E4992005C589B
:102C800022435A501C491D4A1D4C99501D4B996CAA
:102C900021409964DA6C1F212240DA6489221A4BA0
:102CA0001A701A4B653A5A7076321A70DA780A40FE
:102CB000DA7001221A7158710F3299791142FCD1E0
:102CC0000C219A790A40082AFBD10C2138325A711A
:102CD0009A790A40082AFBD1383299791142FCD0FE
:102CE0001A220C211A709A790A400C2AFBD110BDC5
:102CF0000070044038100000000001104410000073
:102D0000FFF8FFFE009004400050064000400640DF
:102D10000022064B1A609860196840320A431A6014
:102D2000012219680A431A607047C0460000044037
:102D300080230D4A70B511680C4D0B4313602C684D
:102D4000002C05D00A48013CFFF7E2FF2C6070BD63
:102D5000084D2888002803D0FFF7DAFF2C80F6E71B
:102D600000F0AEFCF3E7C04600000440B0FDFF1FDA
:102D7000FFFF0000B4FDFF1F684BF7B51F68002F71
:102D800000D091E001241C608023654D654A1B043E
:102D9000A958654E0B43AB50644B1F6001235B4247
:102DA00073610533F361F3692343F361604B1B687F
:102DB0000193604B0198E9580723090C1940091940
:102DC0000BF0AAF95C4B5D49C0180BF0A5F95C4A01
:102DD00001387060F460AB585A492343AB505A4AEB
:102DE0005A4B17609B681700B03319608021584B0D
:102DF000490519603F214F4BEE58019B360F554D49
:102E000036195E432B788B43802B33D02B788B4342
:102E100064D16B795B0653D4AB79DB065ED40722B1
:102E20002B786978DB08134029329C40114203D08B
:102E3000FF2364015B011C401F22EB789343602B4E
:102E400035D007D8202B0ED0402B2ED0002B35D1DB
:102E5000A02106E0A02B2DD0C02B2DD0802B2DD172
:102E6000B721890001E0A021C900200070430BF0C8
:102E700053F90600002E31D0304930000BF0D2F962
:102E80000C1E2BD12D4930000BF046F907230128E9
:102E900042D021000123400801281AD17823C9001B
:102EA0001940753B19437960F7BDF021DCE7A0219B
:102EB0000901DAE7B721D7E72749D6E72749D4E759
:102EC0001F2328796979184001301940704318315F
:102ED000CDE7184202D101314008DDE702232A780C
:102EE00013432B7001236A7813436B7000230E2267
:102EF0007B602B7A13400AD0022B0CD02B7A9343A1
:102F00002B7204232A7A1A432A727A6801E0082372
:102F10007A68134300E07B687B60C5E7ACFDFF1F68
:102F2000007004403C100000FC700340007003403F
:102F3000A0F1FF1F4410000020A1070040420F0035
:102F400038100000312D00000000044000ED00E0CA
:102F500000E100E00040064095080000710B000011
:102F6000054B10B51B68002B01D1FFF705FF034B84
:102F70009869C04310BDC046ACFDFF1FFC70034004
:102F80004021024A13688B431360704700000440DD
:102F90007047000070B50400FFF7E2FF094D201AEA
:102FA000094E040C80B22C603080002C05D00748FC
:102FB000013CFFF7ADFE2C6070BDFFF7A9FE348029
:102FC000FAE7C046B0FDFF1FB4FDFF1FFFFF000082
:102FD0008022024B52055A607047C046FCE100E077
:102FE000084B10B51A68002A01D11A1D1A601A1D63
:102FF0001B68934204D05B220349044800F092FD11
:1030000010BDC046B8FDFF1F59270100A1270100D0
:1030100070B5094D04002B6883420BD0061DC268B1
:10302000816800233000FFF779FD21693000FFF748
:10303000A1FD2C6070BDC046C0FDFF1F70B504002F
:103040000D00160003689B6898470A4BA5601B6833
:10305000E6609C420AD1201D002332002900FFF7C0
:103060005DFD23682000DB68984770BD2000FFF7F6
:10307000CFFFF6E7C0FDFF1F70B504000D00036829
:103080009B689847084B25611B689C4208D1201D0E
:103090002900FFF76FFD23682000DB68984770BDAB
:1030A0002000FFF7B5FFF6E7C0FDFF1F70B5040075
:1030B0000D0003689B6898472000FFF7A9FF2900CF
:1030C000201DFFF79DFD050023682000DB68984761
:1030D000280070BDF7B5040016000D001F0003683E
:1030E0009B6898472000FFF793FF237D32000193F0
:1030F000089B29000093201D3B00FFF78FFD050072
:1031000023682000DB6898472800FEBD73B50400E3
:1031100006A80025455F0A480826083020600020E0
:103120006060E0600748A6602061FF200095207580
:10313000201DFFF771FC2000FFF76AFF200076BD1D
:10314000C029010040420F0010B503681B69984771
:1031500010BD10B503689B69984710BD10B5036892
:103160009B6A984710BD012040427047112070476C
:103170007047704708B4024B9C46303808BC604723
:103180007331000008B4024B9C46303808BC6047DD
:103190007331000010B500F049F810BD08B4024BBF
:1031A0009C46303808BC60479531000010B500F0EF
:1031B00042F810BD08B4024B9C46303808BC60474A
:1031C000AD31000010B5040000F05AF820000021D5
:1031D000303000F04FFC054B20001A00083222600E
:1031E0001A00843328322263636310BDE029010092
:1031F0007047704770B50C0125000C354519EB6818
:10320000002B0CD00419A369002B04D1044A0549F2
:10321000054800F087FCA36928001B68984770BD2B
:103220000E0200006C2A0100B02A010010B5043023
:10323000FFF7CEFB10BD10B50C000430FFF7DFFB2D
:10324000200010BDC36810B50400002B01D09B689E
:103250009847200010BD70B504000D0088420CD0C6
:10326000FFF7F0FF002C08D0EB68002B03D05B6861
:10327000290020009847EB68E360200070BD000043
:10328000F0B5040007000025260089B003931F4B0A
:103290000C37083303600191029245608560290074
:1032A0001C361022380003F00BF9290010223000E0
:1032B00003F006F9039B1022E362290004A803F03F
:1032C000FFF804A93800FFF7C6FF04A8FFF7BAFF0C
:1032D0001022290004A803F0F3F804A93000FFF736
:1032E000BAFF251D04A8FFF7ADFF029A0199280037
:1032F000FFF73CFAE16A2800FFF752F928002200A4
:103300000349FFF7E9FA200009B0F0BDB82A01002F
:10331000F5310000F0B505000F001600036887B016
:103320001B68984700F0C2FA2B1D34010193FB681B
:103330000C342C19002B15D0E368002B01D100F0C0
:1033400089F939002000FFF786FF01223100281D8E
:10335000FFF7CEFA00F0D8FA2B6828005B68984790
:1033600007B0F0BDE368002B01D000F08DF910220A
:10337000002102A803F0A4F802A92000FFF76BFFC8
:1033800002A8FFF75FFF0022E0E700007FB504001E
:103390002600164B1022083303600021684603F014
:1033A0008FF8002269462000FFF7B4FF6846FFF758
:1033B00049FF10220021684603F082F80122694685
:1033C0002000FFF7A7FF0C366846FFF73BFF002EF3
:1033D00008D025002C35B54204D0103D2800FFF759
:1033E00031FFF8E7200004B070BDC046B82A0100E4
:1033F00010B50400FFF7CAFF2000FEF731FF2000E0
:1034000010BD10B5040000F051FA2368002B04D061
:10341000237F002B01D000F037F90023236000F058
:1034200073FA200010BD10B5040000F03FFA2368C5
:10343000002B0BD1237F002B01D000F00BF9A069EA
:1034400000F0C9F90123A060E160236000F05CFA9C
:1034500010BD70B5060000F029FA3368002400257D
:10346000002B08D0B06900F0B6F9B268F368801A92
:10347000994104000D0000F047FA2900200070BDBA
:1034800010B5040000F012FA2000FFF7E2FF2269F5
:10349000636980185941236820616161002B04D061
:1034A000237F002B01D000F0EFF80023236000F011
:1034B0002BFA10BD70B5060000F0F8F93469756993
:1034C0003000FFF7C6FF24184D4100F01DFA290017
:1034D000200070BD10B5FFF7EDFFFA220023920027
:1034E0000AF0CEFF10BD10B5040000F0DFF9A069AE
:1034F00000F071F900220023A060E16022616361A5
:1035000000F002FA10BD002310B500220360002372
:103510008260C36002614361040000F0CDF80123C2
:10352000A06123772000FFF7DEFF200010BD000020
:103530000022835E70B504000D00013304D1242203
:103540000549064800F0EEFA6368002D02D0E268F3
:10355000136070BD2269FBE7F126010062220100C1
:1035600070B50D0004001600FEF72CFC6B1C07D094
:1035700000212000FEF746FC31002000FEF73CFC55
:1035800070BD10B50222FFF7EBFF10BD70B50D0046
:1035900004001600FEF716FC6B1C0BD03100200057
:1035A000FFF7C6FF01212000FEF72CFC00212000C0
:1035B000FEF722FC70BD10B50022FFF7E7FF10BD3B
:1035C00010B50400431C0CD110BD9C4208D1200052
:1035D0008968FEF733FF00212000FEF75DFFF3E767
:1035E0000C3100228B5E5A1CEFD1024800F0ACFA7D
:1035F000EAE7C046012B010010B5884208D0431C01
:1036000006D04B1C06D0044800F09EFA0121494226
:10361000080010BD0100FBE7D02A010000228B5EEC
:103620005A1C01D1180002E0834201D1486870475A
:103630000C31F3E710B50400431C07D0FFF7EEFF91
:103640000400431C02D1024800F07EFA200010BDA5
:10365000E12A010010B500F029F9084C084B228836
:103660009A4204D100F050F9064800F06DFA0121A9
:10367000200000F06BF900F047F910BDC4FDFF1FFA
:10368000FFFF0000122B010010B500F00FF9084CED
:103690002388002B04D100F037F9064800F054FAD3
:1036A0000121200000F05FF900F02EF910BDC046A6
:1036B000C4FDFF1F3F2B010000487047682B01002D
:1036C00010B5024800F064F810BDC046682B010038
:1036D000036870B544685B68E668A568984733007E
:1036E0000200A84203D20020012112184B41A2601F
:1036F000E36070BDF8B50400FFF7EAFF6268256873
:1037000053689668D768002B13D01A685B68BB4271
:1037100005D801D1B24202D86B699847F8BD1000B4
:103720001900801BB941002903D10D49921B884221
:1037300001D9E022D2051000002136184F412B6933
:10374000300098472000FFF7C3FF6368DA68BA4289
:10375000E4D302D19B68B342E0D323685B69DCE722
:10376000FFFFFF6F036810B504001B689847002235
:103770000021002063681A605A6001329860D960A5
:103780001A742000FFF7A4FF2000FFF7B3FF10BD5D
:10379000036810B5DB680400984763685B68002B1A
:1037A00015D02000FFF794FF63685A68D968506805
:1037B00088420CD803D111689868814207D8D16833
:1037C00059601B68002BE8D090689847E5E7200017
:1037D000FFF790FF10BD10B5436804001B7C002B61
:1037E00001D1FFF7BFFF2000FFF772FF6368986801
:1037F000D96810BD10B5FFF7EEFF10BD002310B55E
:10380000036043600A7804002F2A0ED14A789A4256
:103810000BD0481C1900206023681A782F2A06D183
:103820000133236000F07AFA6060200010BD002AA6
:10383000F8D0013301312360EEE700687047436838
:1038400010B5181E05D000F010FA01384342584157
:10385000C0B210BD10B50400FFF7F1FF031E03D086
:103860006268131E00D0131F180010BD436810B506
:10387000181E04D000F0F9F943425841C0B210BDFF
:1038800010B50400FFF7F2FF031E03D06268131E99
:1038900000D0131F180010BD4068431E9841C0B2ED
:1038A0007047EFF3108301209843704770B5FFF71E
:1038B000F8FF050072B60F4C2368002B04D10133CA
:1038C00043400D4ADBB213702368013304D1432215
:1038D0000A490B4800F026F92368002B06D0002D7A
:1038E00004D047220549074800F01CF9236801333A
:1038F000236070BDE4FDFF1FE0FDFF1F882B01006A
:10390000C62B0100EC2B010010B50C4C2368002BDA
:1039100013D0FFF7C6FF002804D0582208490948F1
:1039200000F000F92368013B23602368002B04D1D9
:10393000054B1B78002B00D162B610BDE4FDFF1FC4
:10394000882B0100EC2B0100E0FDFF1F70B5050086
:103950000C00FFF7ABFF2B88E418A4B22C80FFF714
:10396000D3FF200070BD70B505000E00FFF79EFF6D
:103970002C88A41BA4B22C80FFF7C6FF200070BDCA
:10398000002070470020704710B5036801221B69B2
:103990000021984710BD002210B5036811001B6973
:1039A000984710BD70477047F8B50E0003680500D2
:1039B000DB6C8C1898473300A34208D05F1C197841
:1039C0002B6828005B6C9847431C06D13C002B6891
:1039D00028001B6D9847A01BF8BD3B00ECE7F8B52D
:1039E0000E0003680500DB6C8F1834009847A7426F
:1039F00008D02B6828009B6C9847431C02D020708D
:103A00000134F4E72B6828001B6D9847A01BF8BD14
:103A1000002070477047002070470020704700006A
:103A200010B50400044B0360044B0430036000F045
:103A300041F9200010BDC046082C0100542C0100A3
:103A400008B4024B9C46043808BC6047213A000089
:103A500010B50400FFF7E4FF2000FEF701FC200092
:103A600010BD08B4024B9C46043808BC6047C046F1
:103A7000513A000010B504000F4B002208C000F0BE
:103A8000F7F80E4B0E491A006433636000230832C6
:103A900022606361200000F07EF96061002803D09D
:103AA000FEF79DFB200010BD01F0F6FC0168054803
:103AB00000F04AF8F6E7C046382D0100802C0100DE
:103AC0005C2C01005F2C0100074B10B51A000400AC
:103AD0000832643302604360406901F029FD200030
:103AE000FFF79EFF200010BD802C01000EB477B5BB
:103AF0000400036807AD40CDDB6C98476069019511
:103B000001F0DEFD3100019A606906F04DFC050010
:103B1000236820001B6D984728007EBC08BC03B0BA
:103B20001847000070B50D0016000400FFF7BEFE38
:103B300033002A0021000348FEF7FAF9FEF79AF94C
:103B400070BDC046EC2C01000FB413B5084B1A78B9
:103B5000002A09D1012405A904981C700191FEF7DF
:103B6000BDF92000FEF736FB13BC08BC04B01847B3
:103B7000E8FDFF1F10B500F04FF810BD70B50A4CFE
:103B800005002000FEF770FB084B1B68002B00D0DF
:103B90009847074B1B68002B01D02800984720004E
:103BA000FEF762FB70BDC046F4FDFF1FFCFDFF1F6A
:103BB000ECFDFF1F70B50F4D06002800FEF754FB0B
:103BC0000D4B1B68002B04D09847002801D1FFF74C
:103BD000D5FF0A4B1B68002B09D098470400002E24
:103BE00000D034602800FEF73FFB200070BD0124A8
:103BF0006442F4E7F4FDFF1FF0FDFF1F00FEFF1F0E
:103C000030B585B06D461824201C291CABBE041CA1
:103C1000200005B030BD0000014B18687047C04659
:103C2000A4F1FF1F70B50500FFF746FD0400FFF784
:103C3000E1FD06002000FFF7DDFD801BA842F9D35F
:103C400070BD000010B504490AF026FD0AF038FEE8
:103C5000FFF7E8FF10BDC04600247449FA2310B5F1
:103C60009B005843FFF7DEFF10BD007B704700004C
:103C70000D4B70B508330360040000230B4E436006
:103C8000A160027330000D00FEF7EEFA002D08D09F
:103C9000074B1A681C6062603000FEF7E5FA2000EE
:103CA00070BD6560F8E7C046202D010008FEFF1FCB
:103CB00004FEFF1F70B50400104B114D0833036064
:103CC0002800FEF7D1FAA368002B05D00D4A13682F
:103CD0009C420DD1636813602800FEF7C5FA237B70
:103CE000002B02D1201FFEF7D5FA200070BD130073
:103CF0005A689442FBD162685A60EDE7202D0100BA
:103D000008FEFF1F04FEFF1F10B50400FFF7D2FFDF
:103D10002000FEF7A5FA200010BD0000F8B50F4DF9
:103D2000070028000E00FEF79FFA0D4B1C68002CC0
:103D30000DD0A06800280FD03200390003F0D6F96A
:103D4000002809D1A06803F09DF9864204D128001B
:103D5000FEF78AFA2000F8BD6468E8E708FEFF1F56
:103D600004FEFF1F036870B51B69012200210400D7
:103D70009847051E0DDB236802221B6900212000E5
:103D800098470600236829001B69002220009847F5
:103D90003500280070BD10B5FEF726FA10BD0000F2
:103DA00070B50500082000F0E7FE2900040000F0CF
:103DB000EDF8054A0549200000F058FD200000F00C
:103DC000F1FE00F009F9C046C14F0000503001007B
:103DD00070B50500082000F0CFFE2900040000F0B7
:103DE000E7F8054A0549200000F040FD200000F0FA
:103DF000D9FE00F0F1F8C0461550000094300100E3
:103E000000487047382E010000487047402E0100DE
:103E1000026041607047C04610B54C680023A04264
:103E200001D0180010BD0B689B1A59425941CBB202
:103E3000F7E7C0467047C0467047C04610B504005B
:103E4000FEF70EFA200010BD10B50400FEF708FAC8
:103E5000200010BD10B504000B6886B068461B69D1
:103E60009847019A0099200000F0ACF8009802AB46
:103E7000984201D0FEF7F4F9200006B010BD00987A
:103E800002AB984201D0FEF7EBF900F0A5F8C0466E
:103E900070B5050082B00E1E21D0541A01940F2C6B
:103EA0000BD82B681800012C15D0002C0DD1002147
:103EB000019A6A60995402B070BD002201A92800DD
:103EC00001F0C2F8019B2860AB602200310002F0D3
:103ED0006DFA2B68EBE732781A702B68E7E7002A57
:103EE00002D00348FFF75CFF01920368DFE7C0469A
:103EF000482E010070B50400100003F0B7F823004D
:103F00000833051E236008D003F0BCF82A182900E6
:103F10002000FFF7BDFF200070BD01225242F6E7EE
:103F200010B5036814005B690B4A82B093420CD150
:103F30000300626800209A4201D002B010BD2368DD
:103F4000581A43424341D8B2F7E70A0001006846D5
:103F500098470099019BECE7113E000010B5064C14
:103F6000064922000648FEF733F9220005490648B3
:103F7000FEF72EF910BDC046C0F0FF1F393E00000D
:103F8000ACF1FF1F353E0000A8F1FF1F10B5074B35
:103F900082B0040001AA08C001F0F0F8200002B0CD
:103FA00010BD200000F062FE00F016F87430010031
:103FB00010B50400FFF7EAFF014B2000236010BD9D
:103FC000A830010010B5040082B001AB01F0CAF8BE
:103FD000200002B010BDC0461EB400F097F81EBC11
:103FE0000CF0DEFFF0B5474680B49846037882B007
:103FF0000D00472B20D000232A4C0193236820007A
:104000009B6898470126002803D0019B01361B6856
:1040100001932B6801AA1F69210001232800B847DA
:104020000023002803D04346019A1A603300180089
:1040300002B004BC9046F0BD43784E2BDBD18378B0
:10404000552BD8D1C378432B1CD0C378432BD2D166
:104050000379432BCFD143792B2BCCD183792B2BD5
:10406000C9D1C379012BC6D805D003005830203BF5
:104070001C680190C2E7203800680300783B1C6888
:104080000190BBE70379462BDFD143794F2BDCD17D
:104090008379522BD9D1C379002BD6D10193024C0D
:1040A000ACE7C046482F0100F02E010010B5040017
:1040B00000F0A4FD23002278203B472A05D0826827
:1040C000002A20D18360012010BD62784E2AF6D1EB
:1040D000A278552AF3D1E278432AF0D12279432AF3
:1040E000EDD162792B2AEAD1A2792B2AE7D1E279A4
:1040F000012AE4D8DA690132DA61012AE3D182685F
:104100009A618360DFE700F091FDC04610B500F0D2
:1041100075FD8368002B2ED020229A5C472A04D09C
:10412000002282602033180010BD263A9A5C4E2A85
:10413000F6D12C3A9A5C552AF2D1323A9A5C432A4B
:10414000EED11F3A9A5C432AEAD11E3A9A5C2B2A96
:10415000E6D1053A9A5C2B2AE2D1043A9A5C012A0C
:10416000DED8DA69013ADA61002ADBD19A69826025
:1041700000229A61D6E700F059FDC046F0B55746D7
:104180004E464546E0B48A4682B0502800D17AE0D7
:104190000F2404400C2C00D973E03F4DA4002C598F
:1041A000A7465578177894782D023D4324042C4374
:1041B0002500D47824062C43151D002C09D0702628
:1041C00051460640102E64D040B26418002800DA30
:1041D000246828001C6002B01CBC90469946A24688
:1041E000F0BD5578177894782D023D4324042C4374
:1041F0002500D47824062C4315000835DDE75478D3
:10420000157824022C4324042414951CD5E77F211F
:10421000150000240027884601356E1E3178464679
:104220000E40BE4034436E468C46F1716946072607
:104230008E570737002EEFDB1F2FBED86146490689
:10424000BBD50126BE4076423443B8E700218C46F8
:104250007F311500002488464746614601356E1EB1
:10426000367837408F400721894676B23C43CC44AC
:10427000002EF1DBA1E75478157824022C43951C1D
:104280009BE701F0F5F8032103328A43150010CDB6
:104290009FE7110098E7C0469C2E010010B5FF284B
:1042A0000ED070230340202B16D00BD9402B0FD0FB
:1042B000502B05D0302B09D108000DF0A5F800E0F7
:1042C000002010BD002BFBD0102BF9D001F0D0F84E
:1042D00008000DF085F8F4E708000DF091F8F0E71C
:1042E000F8B506000F001400002845D00DF078F84E
:1042F00020607D1C3F78FF2F35D031003800FFF75C
:10430000CDFF231D01002A003800FFF737FF05000D
:104310002B78691C2375FF2B2BD010230025002040
:104320007F262375320001314B1E1B781A408240D4
:104330005BB215430730002BF4DB4D19E5600B78B9
:10434000481C002500217F26637532000130431E82
:104350001B781A408A405BB215430731002BF4DB0F
:1043600045192561F8BD60602B78691C2375FF2B0A
:10437000D3D10023E360E2E70020B9E7F0B5564669
:104380004D465F4644460023F0B497B00A9303338A
:104390008A4691460340012B26D0002B16D0022BD3
:1043A00012D1494650460DF007F80925002800D1E2
:1043B0000825280017B03CBC90469946A246AB465B
:1043C000F0BD002B00D105E201F052F80307E8D45C
:1043D0000BAB0B9100930C220023002148460CF0FC
:1043E00083FA012305930FE00823184000D1B7E0BA
:1043F000022318430BAB05900B9100930C22002372
:10440000002148460CF070FA48460CF0EFFF069089
:104410000028C6D010AD2A0006994846FFF760FF75
:1044200049460600287DFFF739FF0FABA8600F2231
:1044300000930021002348460CF030FA01230F9A24
:104440009A431300013B98462B699E4244D20DAB20
:1044500003930EAB9B467F276C7D00212000FFF766
:104460001DFF32000100039B2000FFF787FE6C7DDB
:10447000060000212000FFF711FF320001005B461B
:104480002000FFF77BFE6C7D060000212000FFF777
:1044900005FF320001000FAB2000FFF76FFE002484
:1044A000060000213A000136731E1B781A408A402C
:1044B0005BB214430731002BF4DB0D9A2B68944652
:1044C0006344984508D30E9A94466344984500D2B5
:1044D000BAE02B69B342BFD800230026012404931D
:1044E000059BDB0755D40823059A134200D1A2E0AF
:1044F0000DAB03930EAB9B46012C00D19FE15346BD
:104500000C930CAB009300220023002148460CF0D2
:10451000EBF9039B012200930021002348460D96EE
:104520000CF0E2F95B460F2200930021002348467D
:104530000CF0B4F901230E9A00211340049A484666
:1045400013430E935B460F22009300230CF0CCF92B
:104550000725022C00D02CE75046FFF7A7FD28E7DF
:1045600010AD0C6A002300950D22002148460CF086
:1045700095F9109B9C4222D053460B930BAB0093B2
:104580000C220023002148460CF0AEF902230593CB
:104590003AE70EAB9B465B460D22009300210023B9
:1045A00048460A9C0CF07AF953460E9A5C621A62ED
:1045B000069A9E62DA62049A06251A63F9E6534661
:1045C0000B930BAB00930C220023002148460CF008
:1045D0008BF953461B6B0493002B32D053469E6AD3
:1045E000DB6A032406930DAB03930EAB9B46002EB0
:1045F00085DA2A0006994846FFF772FE287D49466B
:10460000FFF74CFE731CA860ED689B00ED1A2B6849
:10461000002B00D10FE100222B1D0433191F096864
:1046200001320029F9D153469A62D86252460423D6
:104630005563136363E70DAB03930EAB9B46012CED
:10464000D5D1504600F0A0F90F9B002B00D1A8E671
:104650006A68944663440493002C00D1D9E02A6927
:10466000013C94466444002B00D19AE6002C00D112
:10467000D3E00823059A1A40099200D1ADE05246D2
:104680003F3313700733537007339370123BD3706B
:104690000333137109335371033393710023D371BF
:1046A000002307937F3398464B46A946089300267C
:1046B00000220134631E197843460B4093401E4389
:1046C0004BB20732002BF4DB1F2A06D840230B42E3
:1046D00003D03F3B93405B421E4321000027002252
:1046E000434608780131034093401F4343B20732E9
:1046F000002BF5DB1F2A06D84023034203D03F3BA3
:1047000093405B421F43002E24D026DD4B46187D8C
:10471000FF285DD007230340022B56D000D850E677
:10472000032B57D0042B00D04EE6F20052424B46EA
:10473000DB6849469C46896862445B46FFF71EFD7C
:104740000E9900295BD05346002B51D1002F6BD01E
:10475000E419ACE701230793F8E75346002B02D096
:10476000099B002B14D0731C9B00139A5B429B582F
:10477000002BEBD1089B4D469946059BDB0700D5E6
:1047800009E7099B0324002B00D130E700F05AFA17
:104790000A9B751C0F93139BAD005D1B29680029B4
:1047A000E8D05346A2461C0003E0043529680029DE
:1047B0002AD069180FAB00222000FFF713FC002855
:1047C000F3D0230054469A46C0E772005242AEE747
:1047D0000022ACE7B2005242A9E75346DA795833D7
:1047E000012A01D00A935BE7783B1B680A9357E7DD
:1047F0000AAB00225046FFF7F5FB0028A6D0089B25
:104800004D46032499466BE6089B4D46A2469946C1
:10481000B3E7049B002B00D1C3E5059BDB0700D564
:10482000BFE5002602245EE6089B4D469946079B9D
:10483000002BF2D1B5E50022F5E600F0A5FA00F074
:10484000F5F9C04610B501280CD80B00283BDB68F1
:1048500058310C00002B01D008009847200000F0D0
:10486000A1F910BD2839486900F0CCF9F8B5040069
:104870000F00160000F0C2F94368250001334360C1
:104880000123803D2B60EE60AF6000F0E9F9260067
:10489000286100F0DFF94723583E68613370230038
:1048A0004E22573B1A7007325A7022004323553A62
:1048B00013705370183B9370D3700023513C2370D6
:1048C000044B30002B630CF053FB300000F05CFA1B
:1048D00000F0ACF94548000010B500F08FF94268CF
:1048E000036801324260002B0DD020229A5C472AD7
:1048F0000BD00022026020331C0018000CF068FB73
:10490000200000F041FA00F091F9263A9A5C4E2A14
:10491000EFD12C3A9A5C552AEBD1323A9A5C432A71
:10492000E7D11F3A9A5C432AE3D11E3A9A5C2B2ABC
:10493000DFD1053A9A5C2B2ADBD1043A9A5C012A32
:10494000D7D85A6952425A61D5E7C0460278030067
:104950000020472A00D070475A784E2AFBD19A7817
:10496000552AF8D1DA78432AF5D11A79432AF2D1B7
:104970005A792B2AEFD19A792B2AECD1DB792A3A72
:104980009A424041C0B2E6E710B5041E06D000F0DE
:10499000FBF92000FFF7DAFF002801D100F046F90B
:1049A000203CE06800F02EF9F0B55F4656464D46D3
:1049B0004446F0B485B00700FFF7C8FF00280ED0CA
:1049C0003B00203B9C68DD683B6B380098467B6B66
:1049D000BE6A994600F0D8F9200000F02FF938009F
:1049E00000F0D2F900F02EF900F0CEF900F01EF937
:1049F00000F0CAF900F0FEF827230768FB5C012BE2
:104A000044D03B007833029343469B089B000193BC
:104A100000234C469A46994620339846B844B245FE
:104A200028DA00272368BB4200D0E71802AB002237
:104A300039004046FFF7D6FA002813D13B680390AF
:104A40001B6903AA9B46144901233800D847002854
:104A500001D00123994601239C46019BE2449C46D8
:104A60006444DCE7FFF738FF00F0D0F900F0CEF93E
:104A7000FFF7B2FA4B46002B0AD0042000F07CF876
:104A8000064B074A03600449FFF7F0FE3B68BAE7AC
:104A9000280000F0B7F8C046882F0100582F010009
:104AA000714C000070B51A4C08386168066800291E
:104AB00018D08519A94218D04A68002A20D09542FA
:104AC00004D321E011009D4204D21A0053680C1D4A
:104AD000002BF7D111685518A8420ED04360236807
:104AE000586070BD41606060FBE70B689C464B6896
:104AF0006644066043606060F3E776181660F0E78E
:104B000000230A000434E5E7130004340A00E1E757
:104B100010FEFF1F0300083310B50824072B03D92C
:104B200007230F309843040012484268002A0AD035
:104B300011688C4204D819E01968A14205D21A0004
:104B40005368002BF8D1002010BD0432091B07293F
:104B500009D918195B680160436013681C60106014
:104B600008331800F0E759681160F9E71300021DD7
:104B7000ECE7C04610FEFF1F70B58030050001F065
:104B800091FB041E07D080220021200001F098FC38
:104B90002000803070BD2800FFF7BCFF041EF2D15A
:104BA00000F044F8074A8038936810B5984203D95A
:104BB000D2689B18984202D301F07EFB10BDFFF72C
:104BC00071FFFBE710FEFF1F70B59E25084C2D01FD
:104BD0002800E56001F066FBA060002804D00023F7
:104BE00060600560436070BDE0606060FBE7C046E8
:104BF00010FEFF1F0048704720FEFF1F004870474F
:104C000020FEFF1F70B5804700F032FC00F0BCF8BA
:104C100000F02EFC0D00040000F0F8F86B1C01D031
:104C2000FFF7DAF92000FFF7BFFEC046024B10B5D0
:104C30001868FFF7E7FFC046B4F1FF1F10B58047C3
:104C4000FFF7F4FF024B10B51868FFF7F7FFC046F7
:104C5000B0F1FF1F014B18687047C046B4F1FF1F49
:104C6000014B18687047C046B0F1FF1F7047C0463F
:104C70007047C04600487047342F010010B504004B
:104C8000FDF7EEFA200010BD30B585B0002314000A
:104C90006A461371102200930393036802929D6980
:104CA00022686B46A8476B4606221B7900201340FA
:104CB000062B02D1009B0130236005B030BDC046F9
:104CC000009B934201D0012070470620FCE7C046BC
:104CD00010B50400034B0833036000F065FA2000B0
:104CE00010BDC046942F010010B50400044B0833DA
:104CF000036000F059FA2000FDF7B2FA200010BD61
:104D0000942F010070B515001C0000F051FA002826
:104D100004D00823E360023B2560237170BDC046C8
:104D200070B516001D00069A049B040093420ED035
:104D30002900200000F03CFA002806D0079B049AC6
:104D40001E711A600123079A9371002070BD0599A6
:104D500000F02EFA0028EBD0079B5E71F5E7C04605
:104D6000F8B505000C0017001E0000F021FA00281D
:104D700001D1032E00D9F8BD23683A005B692900F0
:104D800020009847F7E7C04670B50400FFF736FFEC
:104D9000230021780268203B472905D0002A2CD126
:104DA00000250360280070BD61784E29F6D1A178F6
:104DB0005529F3D1E1784329F0D121794329EDD167
:104DC00061792B29EAD1A1792B29E7D1E179012950
:104DD000E4D8596900290DDB013159614168013975
:104DE00041609A4201D01A6103602000656A0BF0AD
:104DF0004BFDD7E70125691AEFE7FFF717FF4B1CBB
:104E000001D0FFF7E9F8FFF7CFFDC04610B5FFF777
:104E1000F1FE0368002B09D020229A5C472A06D0B5
:104E200000222033026018000BF030FD10BD263A3E
:104E30009A5C4E2AF4D12C3A9A5C552AF0D1323A37
:104E40009A5C432AECD11F3A9A5C432AE8D11E3A75
:104E50009A5C2B2AE4D1053A9A5C2B2AE0D1043AD9
:104E60009A5C012ADCD85A69002A08DB013A002A38
:104E70000CD0511C01D05A61D8E7FFF7D7FE0132A0
:104E8000002AF8D1196901605A61CFE71A69203305
:104E9000026018000BF0FAFCC8E7C04610B5040029
:104EA000034B08330360FFF713FF200010BDC0461B
:104EB000F02F010010B50400044B08330360FFF726
:104EC00007FF2000FDF7CCF9200010BDF02F0100F6
:104ED000F0B5474680B40D0084B0190007001600F5
:104EE000984600F065F9041E0FD00D9B0A9A1E71BA
:104EF0001A60002D22DB94460C9B6544AB422DD0FA
:104F000001230D9A0024937113E00A9B0C9A93429B
:104F10001BD0B8680D9A036803920C9A290002927C
:104F20000B9A01920A9A0092DC6932004346A0472C
:104F30000400200004B004BC9046F0BD0024AB1C6B
:104F4000F7D101230D9A9371F3E70B99380000F024
:104F50002FF90028DDD00D9B5E71EAE70623D0E72C
:104F6000F0B583B01D00089B06000F0014009342AB
:104F70000AD0B068089A036800921E6A22002B00CB
:104F80003900B04703B0F0BD290000F011F9002846
:104F9000EFD00620F6E7C046F8B507000C00150074
:104FA0001E00FFF7AFFE002806D1B8682A0003688C
:104FB00021009F693300B847F8BDC046406870477C
:104FC0000D4B10B5083303604368040018000B4A0A
:104FD0000C3882B0904205D12000FFF747FE200038
:104FE00002B010BD043B1A68511E1960002AF3DCA0
:104FF00001A900F09FF8EFE76C3001002CFEFF1FC5
:1050000010B50400FFF7DCFF2000FDF729F92000B0
:1050100010BDC04610B50400034B08330360FFF712
:10502000CFFF200010BDC046A030010010B5040025
:10503000044B08330360FFF7C3FF2000FDF710F9AE
:10504000200010BDA030010008680C4B10B598423C
:1050500011D8904208D95200904205D29A4207D9FD
:1050600080200B60000600E00130FDF7E7F810BD7E
:105070000A60501CF9E70248FEF7AAFEFFFFFF7F17
:10508000B4300100164B10B50400984224D80D30FE
:105090008C4217D94B009C4200D21C0023002000F8
:1050A00080221D330D30520193420BD9A14209D207
:1050B00094461B051B0D6444E41A094B9C4207D817
:1050C00020000D30FDF7BAF800234460836010BD66
:1050D0001C0020000D30F5E70248FEF779FEC046BF
:1050E000FCFFFF3F68320100F8B50C1A06000021F2
:1050F0002000FFF7C7FF070005000C37012C06D082
:10510000002C0FD10A4B9D4206D13800F8BD3378F0
:105110000373074B9D42F8D000232C602C19AB6021
:105120002373F2E722003100380001F03FF9E9E78C
:105130002CFEFF1F10B5FDF793F810BD10B5884287
:1051400004D0002804D0FFF7CFFF10BD0348FCE7D0
:105150000029F8D00248FEF723FEC04638FEFF1FA4
:105160009832010010B50400080011001A0041181F
:105170000023FFF7E3FF2060200010BD70B505009D
:105180000C00160000290BD0080001F07BFF21184D
:10519000320000232000FFF7D1FF2860280070BDF7
:1051A00001214942F4E7C0467047C04600207047DD
:1051B00010B5814211D0406803782A2B0BD0496882
:1051C0000B782A3B5A425341C91801F0A7FD4342CC
:1051D0005841C0B210BD0020FCE70120FAE7C046EC
:1051E0000122244B1968114200D11A600122224B7E
:1051F0001968114200D11A600122204B196811422E
:1052000000D11A6001221E4B1968114200D11A60A8
:1052100001221C4B1968114200D11A6001221A4B5D
:105220001968114200D11A600122184B1968114205
:1052300000D11A600122164B1968114200D11A6080
:105240000122144B1968114200D11A600122124B3D
:105250001968114200D11A600122104B19681142DD
:1052600000D11A6001220E4B1968114200D11A6058
:105270007047C04668FEFF1F64FEFF1F60FEFF1FF1
:105280005CFEFF1F58FEFF1F54FEFF1F50FEFF1F56
:105290004CFEFF1F48FEFF1F44FEFF1F40FEFF1F86
:1052A0003CFEFF1F0122184B1968114200D11A6001
:1052B0000122164B1968114200D11A600122144BC9
:1052C0001968114200D11A600122124B196811426B
:1052D00000D11A600122104B1968114200D11A60E6
:1052E00001220E4B1968114200D11A6001220C4BA9
:1052F0001968114200D11A6001220A4B1968114243
:1053000000D11A607047C04688FEFF1F84FEFF1F51
:1053100080FEFF1F7CFEFF1F78FEFF1F74FEFF1F35
:1053200070FEFF1F6CFEFF1F0122184B196811420F
:1053300000D11A600122164B1968114200D11A607F
:105340000122144B1968114200D11A600122124B3C
:105350001968114200D11A600122104B19681142DC
:1053600000D11A6001220E4B1968114200D11A6057
:1053700001220C4B1968114200D11A6001220A4B1C
:105380001968114200D11A607047C046A8FEFF1F7D
:10539000A4FEFF1FA0FEFF1F9CFEFF1F98FEFF1F25
:1053A00094FEFF1F90FEFF1F8CFEFF1F0122244B67
:1053B0001968114200D11A600122224B196811426A
:1053C00000D11A600122204B1968114200D11A60E5
:1053D00001221E4B1968114200D11A6001221C4B98
:1053E0001968114200D11A6001221A4B1968114242
:1053F00000D11A600122184B1968114200D11A60BD
:105400000122164B1968114200D11A600122144B77
:105410001968114200D11A600122124B1968114219
:1054200000D11A600122104B1968114200D11A6094
:1054300001220E4B1968114200D11A607047C04614
:10544000D8FEFF1FD4FEFF1FD0FEFF1FCCFEFF1FA4
:10545000C8FEFF1FC4FEFF1FC0FEFF1FBCFEFF1FD4
:10546000B8FEFF1FB4FEFF1FB0FEFF1FACFEFF1F04
:1054700010B5062001F090FA0120FCF791FEC0461D
:1054800010B50A22002101F039FF10BD10B50A2322
:10549000002201F077FE10BD014B18687047C0462E
:1054A000C0F1FF1F70B505000C1E08D0002802D007
:1054B000836B002B31D00C22A35E002B01D1002086
:1054C00070BD2100280000F03DF8E36A0600002BC3
:1054D00004D0E16928009847002821DBA3891B0636
:1054E00021D4216B002908D023004033994202D0F7
:1054F00028000BF0CFFF00232363616C002904D048
:1055000028000BF0C7FF0023636400F0E5F90023D7
:10551000A38100F0E3F93000D2E700F0D5F9CAE743
:1055200001267642DAE7216928000BF0B3FFD8E7BD
:1055300010B5034B01001868FFF7B4FF10BDC0465B
:10554000C0F1FF1FF0B5474680B40C228B5E804649
:105550009AB20C00110740D48022120113436268F2
:10556000A381002A00DC70E0A66A002E31D04246FA
:105570004146156800229BB20A60DA0400D469E053
:10558000226D5B0706D56368D21A236B002B01D00E
:10559000E36BD21A0023E1694046B047431C3DD07B
:1055A000A2893A4B13400022626022691BB2A38198
:1055B0002260DB0447D44346216B1D60002908D0DC
:1055C00023004033994202D040460BF063FF002392
:1055D0002363002004BC9046F0BD2669002EF8D05D
:1055E000236826609D1B0023920700D16369A36096
:1055F000002D04DCEDE736182D1A002DE9DD2B0017
:105600003200E1694046676AB8470028F3DC40236E
:105610000120A28940421343A381DBE74346196876
:105620001D29F4D81A4B0122CB409A43EFD1A68909
:10563000164B6260334022691BB2A3812260DB04F7
:10564000B9D50029B7D12065B5E7E26B002A00DDA6
:105650008AE7BEE700220123E1694046B047020025
:10566000431C02D0A389A66A8BE743461B68002B24
:10567000F8D01D2B01D0162B03D1434600201D600E
:10568000A8E74023A1890B43A381A3E7FFF7FFFF0E
:105690000100402070B504000D00002802D0836B8B
:1056A000002B09D00C22AB5E0020002B03D0290078
:1056B0002000FFF747FF70BD00F006F9F2E7C04693
:1056C00010B5011E04D0054B1868FFF7E3FF10BDAD
:1056D000034B0449186800F0DBFCF8E7C0F1FF1F3A
:1056E00044340100955600000020704710B502496F
:1056F00000F0CEFC10BDC046A5540000F8B55F46D2
:1057000056464D464446344BF0B4C363B823002498
:1057100003229B00C45004334568C2500833C218AA
:10572000043BC2500600042328002C606C60AC606F
:10573000AB816C66EC812C616C61AC61082200214C
:105740005C3000F0BDFE254B254F9A462B62254B61
:10575000EF6299466B62244BED61AB62B568984687
:1057600009232800AB81083B2C606C60AC606C6640
:10577000EB812C616C61AC61082200215C309B469E
:1057800000F09EFE53462B624B466B624346EF622F
:10579000AB62ED61F56812232800AB81103BEB8111
:1057A0002C606C60AC606C662C616C61AC61082232
:1057B00000215C3000F084FE53462B624B466B6246
:1057C0004346AB625B46EF62ED61B3633CBC90461F
:1057D0009946A246AB46F8BDED560000A16B00000D
:1057E000356C0000CD6B0000096C00000020704794
:1057F000682370B54C1E5C430E00210074310BF021
:1058000041FE051E09D000232200036046600C30D3
:10581000A8606832002100F053FE280070BDC04629
:10582000224B70B51D680600AB6B002B02D128001F
:10583000FFF764FFB8239B009C4665446B68AC6827
:10584000013B03D51FE06834013B1CD30C21625E91
:10585000002AF8D10123002520005B42E3810233B6
:10586000A38165662560A560656025616561A561A8
:105870005C300822002100F023FE200025636563D0
:105880006564A56470BD2B68002B01D01D00D5E7B1
:1058900004213000FFF7ACFF2860002801D005008C
:1058A000CCE70C2300203360ECE7C0464434010011
:1058B00010B5034B0349186800F0EAFB10BDC04661
:1058C00044340100A5540000836B10B5002B01D1B6
:1058D000FFF714FF10BDC0467047C0467047C04672
:1058E0007047C0467047C04610B5034B034918685F
:1058F00000F0ACFB10BDC046C0F1FF1FED5700002B
:1059000010B5034B0349186800F0A0FB10BDC0465A
:10591000C0F1FF1FE956000070B5094B094CE41AAD
:10592000A41009D0084AA518AD00ED182B68013C59
:105930009847043D002CF9D10CF0C2FB70BDC04665
:10594000A0FAFF1FA4FAFF1FFFFFFF3FF0B583B0CF
:105950000F00110001AA050005F082FF061E23D0EA
:105960002800FFF75DFF041E1ED0DB23019A5B00B9
:105970003900280000F0EAFD00280FDB0F4BE08122
:1059800023620F4BA68163620E4BE461A3620E4B50
:10599000E362F3050AD4200003B0F0BDFFF79CFFDB
:1059A0000023A381FFF79AFF0024F4E702230022DB
:1059B0002100280000F016F8EDE7C046A16B0000BA
:1059C000CD6B0000096C0000356C000010B5044B75
:1059D0000A001B6801001800FFF7B8FF10BDC046A1
:1059E000C0F1FF1F10B500F00DF810BD10B5040098
:1059F0001300034A10680A00210000F003F810BDEC
:105A0000C0F1FF1FF0B5444656464D465F46F0B420
:105A1000904691B005000C001E00002803D0836B57
:105A2000002B00D177E08422A389520013409342D7
:105A300000D179E0A36A9946002B00D14DE1012EF7
:105A400051D0022E0DD0002E0BD016232B60012733
:105A50007F42380011B03CBC90469946A246AB4606
:105A6000F0BD0022002793462369002B00D11EE1E0
:105A70000C22A35E9B499AB20A420CD18021C90034
:105A80008A460A425BD1984A914500D1F8E08022CB
:105A900012011343A38121002800FFF7FBFD071E1D
:105AA000D5D133004246E1692800C847431CCED017
:105AB000216B002908D023004033994202D02800EE
:105AC0000BF0E8FC002323632369200023600023FC
:105AD000A2896360854B00211340A38108225C30BA
:105AE00000F0EEFCB5E721002800FFF7D3FDA38905
:105AF000DA0400D4B9E0276D5A0757D41B075CD5E8
:105B000022682369002A01D0D21ABF180122B844A2
:105B100093460026A9E7FFF7D7FE8422A389520007
:105B20001340934200D085E721002800FFF7B2FD23
:105B300080E753465246E364A3891343A381C246D8
:105B4000002E4AD15B46002B39D06368226B9C46FD
:105B5000002A00D1B9E0E36B9B462169A36B67443F
:105B60005B1AF81A5B44824544DBC718574541D994
:105B70005646371AC919DB1B21606360002A09D019
:105B8000230040339A4203D0110028000BF082FC1E
:105B90000023236320222000A3895C309343A38148
:105BA000183A002100F08CFC002752E76368FF1AC6
:105BB000236B002B01D0E36BFF1A2369A6E7A389AF
:105BC000DB0479D5206D6368226B9C46C71A002AD6
:105BD0007BD0E36B9B46FF1ABFE70E23E15E01AA71
:105BE000280000F091F8002800D054E7059B4344BA
:105BF0009A46A7E7E36CE1695F4253461F403A00CB
:105C000000232800C847431C00D144E70023216B30
:105C1000636023692360002908D023004033994240
:105C200002D028000BF036FC002323632022A38936
:105C30009343A3815346DF1B0FD02100280000F0BF
:105C4000CBFC002800D026E763689F4200D922E7FA
:105C50002268D219DF1B22606760200008225C30B6
:105C6000002100F02DFC0027F3E601230022E1696A
:105C70002800C8470700431C00D1E8E6A3893BE79A
:105C80000E22A15E002900DA01E701AA280000F037
:105C90003BF8002808D1F023029A1B02134080220F
:105CA0001202934200D144E70C22A35EEFE62100EA
:105CB000280000F0B3FADBE601230022E1692800A6
:105CC000C847431C00D07EE7E5E6236821695A1ADD
:105CD0001300B81A6344002245E701271D332B60E7
:105CE0007F42B6E61A080000096C0000DFF7FFFFEC
:105CF00010B504001300034A10680A002100FFF7E2
:105D000081FE10BDC0F1FF1F002370B5074C0500D8
:105D1000080011002360FCF7F3F9431C00D070BDAC
:105D20002368002BFBD02B60F9E7C04618FFFF1F4C
:105D3000F0B5564644465F464D46F0B4936885B08C
:105D400001900C009246002B25D08B891A072AD58A
:105D50000A69002A27D05246126893469A072FD51F
:105D6000B74B002600259846002D00D16DE02B0092
:105D7000454500D9B24B3200E1690198676AB847DE
:105D8000002800DC79E053469B6836182D1A181A53
:105D900053469860E8D1002005B03CBC9046994637
:105DA000A246AB46F0BD2100019804F08BFC002810
:105DB00000D03BE15246A389126893469A07CFD49C
:105DC000DA0762D50023002799461D000293002FB1
:105DD00030D0029B002B00D1C3E02E00BD4200D981
:105DE0003E0020682269B0466369904207D9A268E4
